{
  "contractName": "PropertyRegistry",
  "abi": [
    {
      "inputs": [],
      "stateMutability": "nonpayable",
      "type": "constructor"
    },
    {
      "anonymous": false,
      "inputs": [
        {
          "indexed": true,
          "internalType": "address",
          "name": "owner",
          "type": "address"
        },
        {
          "indexed": true,
          "internalType": "address",
          "name": "approved",
          "type": "address"
        },
        {
          "indexed": true,
          "internalType": "uint256",
          "name": "tokenId",
          "type": "uint256"
        }
      ],
      "name": "Approval",
      "type": "event"
    },
    {
      "anonymous": false,
      "inputs": [
        {
          "indexed": true,
          "internalType": "address",
          "name": "owner",
          "type": "address"
        },
        {
          "indexed": true,
          "internalType": "address",
          "name": "operator",
          "type": "address"
        },
        {
          "indexed": false,
          "internalType": "bool",
          "name": "approved",
          "type": "bool"
        }
      ],
      "name": "ApprovalForAll",
      "type": "event"
    },
    {
      "anonymous": false,
      "inputs": [
        {
          "indexed": false,
          "internalType": "string",
          "name": "name",
          "type": "string"
        },
        {
          "indexed": false,
          "internalType": "string",
          "name": "location",
          "type": "string"
        },
        {
          "indexed": false,
          "internalType": "uint256",
          "name": "surveyNo",
          "type": "uint256"
        },
        {
          "indexed": false,
          "internalType": "address",
          "name": "owner",
          "type": "address"
        },
        {
          "indexed": false,
          "internalType": "uint256",
          "name": "marketValue",
          "type": "uint256"
        },
        {
          "indexed": false,
          "internalType": "uint256",
          "name": "size",
          "type": "uint256"
        }
      ],
      "name": "PropertyRegistered",
      "type": "event"
    },
    {
      "anonymous": false,
      "inputs": [
        {
          "indexed": true,
          "internalType": "address",
          "name": "buyer",
          "type": "address"
        },
        {
          "indexed": true,
          "internalType": "address",
          "name": "seller",
          "type": "address"
        },
        {
          "indexed": true,
          "internalType": "uint256",
          "name": "tokenId",
          "type": "uint256"
        },
        {
          "indexed": false,
          "internalType": "uint256",
          "name": "price",
          "type": "uint256"
        }
      ],
      "name": "PropertySold",
      "type": "event"
    },
    {
      "anonymous": false,
      "inputs": [
        {
          "indexed": true,
          "internalType": "address",
          "name": "from",
          "type": "address"
        },
        {
          "indexed": true,
          "internalType": "address",
          "name": "to",
          "type": "address"
        },
        {
          "indexed": true,
          "internalType": "uint256",
          "name": "tokenId",
          "type": "uint256"
        }
      ],
      "name": "PropertyTransferred",
      "type": "event"
    },
    {
      "anonymous": false,
      "inputs": [
        {
          "indexed": true,
          "internalType": "address",
          "name": "from",
          "type": "address"
        },
        {
          "indexed": true,
          "internalType": "address",
          "name": "to",
          "type": "address"
        },
        {
          "indexed": true,
          "internalType": "uint256",
          "name": "tokenId",
          "type": "uint256"
        }
      ],
      "name": "Transfer",
      "type": "event"
    },
    {
      "inputs": [
        {
          "internalType": "address",
          "name": "",
          "type": "address"
        }
      ],
      "name": "admins",
      "outputs": [
        {
          "internalType": "address",
          "name": "adminAddr",
          "type": "address"
        }
      ],
      "stateMutability": "view",
      "type": "function",
      "constant": true
    },
    {
      "inputs": [
        {
          "internalType": "address",
          "name": "to",
          "type": "address"
        },
        {
          "internalType": "uint256",
          "name": "tokenId",
          "type": "uint256"
        }
      ],
      "name": "approve",
      "outputs": [],
      "stateMutability": "nonpayable",
      "type": "function"
    },
    {
      "inputs": [
        {
          "internalType": "address",
          "name": "owner",
          "type": "address"
        }
      ],
      "name": "balanceOf",
      "outputs": [
        {
          "internalType": "uint256",
          "name": "",
          "type": "uint256"
        }
      ],
      "stateMutability": "view",
      "type": "function",
      "constant": true
    },
    {
      "inputs": [],
      "name": "chairperson",
      "outputs": [
        {
          "internalType": "address",
          "name": "",
          "type": "address"
        }
      ],
      "stateMutability": "view",
      "type": "function",
      "constant": true
    },
    {
      "inputs": [
        {
          "internalType": "uint256",
          "name": "tokenId",
          "type": "uint256"
        }
      ],
      "name": "getApproved",
      "outputs": [
        {
          "internalType": "address",
          "name": "",
          "type": "address"
        }
      ],
      "stateMutability": "view",
      "type": "function",
      "constant": true
    },
    {
      "inputs": [
        {
          "internalType": "address",
          "name": "owner",
          "type": "address"
        },
        {
          "internalType": "address",
          "name": "operator",
          "type": "address"
        }
      ],
      "name": "isApprovedForAll",
      "outputs": [
        {
          "internalType": "bool",
          "name": "",
          "type": "bool"
        }
      ],
      "stateMutability": "view",
      "type": "function",
      "constant": true
    },
    {
      "inputs": [],
      "name": "name",
      "outputs": [
        {
          "internalType": "string",
          "name": "",
          "type": "string"
        }
      ],
      "stateMutability": "view",
      "type": "function",
      "constant": true
    },
    {
      "inputs": [
        {
          "internalType": "address",
          "name": "",
          "type": "address"
        },
        {
          "internalType": "uint256",
          "name": "",
          "type": "uint256"
        }
      ],
      "name": "ownerMapsProperty",
      "outputs": [
        {
          "internalType": "uint256",
          "name": "surveyNumber",
          "type": "uint256"
        }
      ],
      "stateMutability": "view",
      "type": "function",
      "constant": true
    },
    {
      "inputs": [
        {
          "internalType": "uint256",
          "name": "tokenId",
          "type": "uint256"
        }
      ],
      "name": "ownerOf",
      "outputs": [
        {
          "internalType": "address",
          "name": "",
          "type": "address"
        }
      ],
      "stateMutability": "view",
      "type": "function",
      "constant": true
    },
    {
      "inputs": [
        {
          "internalType": "address",
          "name": "",
          "type": "address"
        },
        {
          "internalType": "uint256",
          "name": "",
          "type": "uint256"
        }
      ],
      "name": "requestedProp",
      "outputs": [
        {
          "internalType": "uint256",
          "name": "surveyNumber",
          "type": "uint256"
        },
        {
          "internalType": "address payable",
          "name": "sellerId",
          "type": "address"
        },
        {
          "internalType": "address payable",
          "name": "buyerId",
          "type": "address"
        },
        {
          "internalType": "uint256",
          "name": "id",
          "type": "uint256"
        },
        {
          "internalType": "enum PropertyRegistry.reqStatus",
          "name": "requestStatus",
          "type": "uint8"
        },
        {
          "internalType": "uint256",
          "name": "amt",
          "type": "uint256"
        },
        {
          "internalType": "bool",
          "name": "isPaymentDone",
          "type": "bool"
        }
      ],
      "stateMutability": "view",
      "type": "function",
      "constant": true
    },
    {
      "inputs": [
        {
          "internalType": "address",
          "name": "from",
          "type": "address"
        },
        {
          "internalType": "address",
          "name": "to",
          "type": "address"
        },
        {
          "internalType": "uint256",
          "name": "tokenId",
          "type": "uint256"
        }
      ],
      "name": "safeTransferFrom",
      "outputs": [],
      "stateMutability": "nonpayable",
      "type": "function"
    },
    {
      "inputs": [
        {
          "internalType": "address",
          "name": "from",
          "type": "address"
        },
        {
          "internalType": "address",
          "name": "to",
          "type": "address"
        },
        {
          "internalType": "uint256",
          "name": "tokenId",
          "type": "uint256"
        },
        {
          "internalType": "bytes",
          "name": "data",
          "type": "bytes"
        }
      ],
      "name": "safeTransferFrom",
      "outputs": [],
      "stateMutability": "nonpayable",
      "type": "function"
    },
    {
      "inputs": [
        {
          "internalType": "address",
          "name": "operator",
          "type": "address"
        },
        {
          "internalType": "bool",
          "name": "approved",
          "type": "bool"
        }
      ],
      "name": "setApprovalForAll",
      "outputs": [],
      "stateMutability": "nonpayable",
      "type": "function"
    },
    {
      "inputs": [
        {
          "internalType": "bytes4",
          "name": "interfaceId",
          "type": "bytes4"
        }
      ],
      "name": "supportsInterface",
      "outputs": [
        {
          "internalType": "bool",
          "name": "",
          "type": "bool"
        }
      ],
      "stateMutability": "view",
      "type": "function",
      "constant": true
    },
    {
      "inputs": [],
      "name": "symbol",
      "outputs": [
        {
          "internalType": "string",
          "name": "",
          "type": "string"
        }
      ],
      "stateMutability": "view",
      "type": "function",
      "constant": true
    },
    {
      "inputs": [],
      "name": "tokenCounter",
      "outputs": [
        {
          "internalType": "uint256",
          "name": "",
          "type": "uint256"
        }
      ],
      "stateMutability": "view",
      "type": "function",
      "constant": true
    },
    {
      "inputs": [
        {
          "internalType": "uint256",
          "name": "tokenId",
          "type": "uint256"
        }
      ],
      "name": "tokenURI",
      "outputs": [
        {
          "internalType": "string",
          "name": "",
          "type": "string"
        }
      ],
      "stateMutability": "view",
      "type": "function",
      "constant": true
    },
    {
      "inputs": [],
      "name": "totalAdmins",
      "outputs": [
        {
          "internalType": "uint256",
          "name": "",
          "type": "uint256"
        }
      ],
      "stateMutability": "view",
      "type": "function",
      "constant": true
    },
    {
      "inputs": [
        {
          "internalType": "address",
          "name": "from",
          "type": "address"
        },
        {
          "internalType": "address",
          "name": "to",
          "type": "address"
        },
        {
          "internalType": "uint256",
          "name": "tokenId",
          "type": "uint256"
        }
      ],
      "name": "transferFrom",
      "outputs": [],
      "stateMutability": "nonpayable",
      "type": "function"
    },
    {
      "inputs": [
        {
          "internalType": "address",
          "name": "",
          "type": "address"
        }
      ],
      "name": "userProfile",
      "outputs": [
        {
          "internalType": "address",
          "name": "userAddr",
          "type": "address"
        },
        {
          "internalType": "string",
          "name": "fullName",
          "type": "string"
        },
        {
          "internalType": "uint256",
          "name": "contact",
          "type": "uint256"
        },
        {
          "internalType": "uint256",
          "name": "totalIndices",
          "type": "uint256"
        },
        {
          "internalType": "uint256",
          "name": "requestIndices",
          "type": "uint256"
        }
      ],
      "stateMutability": "view",
      "type": "function",
      "constant": true
    },
    {
      "inputs": [
        {
          "internalType": "address",
          "name": "_adminAddr",
          "type": "address"
        }
      ],
      "name": "addAdmin",
      "outputs": [
        {
          "internalType": "bool",
          "name": "",
          "type": "bool"
        }
      ],
      "stateMutability": "nonpayable",
      "type": "function"
    },
    {
      "inputs": [],
      "name": "isAdmin",
      "outputs": [
        {
          "internalType": "bool",
          "name": "",
          "type": "bool"
        }
      ],
      "stateMutability": "view",
      "type": "function",
      "constant": true
    },
    {
      "inputs": [
        {
          "internalType": "string",
          "name": "_fullName",
          "type": "string"
        },
        {
          "internalType": "uint256",
          "name": "_contact",
          "type": "uint256"
        }
      ],
      "name": "addUser",
      "outputs": [],
      "stateMutability": "nonpayable",
      "type": "function"
    },
    {
      "inputs": [
        {
          "internalType": "string",
          "name": "_name",
          "type": "string"
        },
        {
          "internalType": "string",
          "name": "_location",
          "type": "string"
        },
        {
          "internalType": "uint256",
          "name": "_surveyNo",
          "type": "uint256"
        },
        {
          "internalType": "address payable",
          "name": "_owner",
          "type": "address"
        },
        {
          "internalType": "uint256",
          "name": "_marketValue",
          "type": "uint256"
        },
        {
          "internalType": "uint256",
          "name": "_sqft",
          "type": "uint256"
        }
      ],
      "name": "registerProperty",
      "outputs": [],
      "stateMutability": "nonpayable",
      "type": "function"
    },
    {
      "inputs": [
        {
          "internalType": "uint256",
          "name": "_tokenCounter",
          "type": "uint256"
        },
        {
          "internalType": "address",
          "name": "to",
          "type": "address"
        }
      ],
      "name": "transferProperty",
      "outputs": [],
      "stateMutability": "nonpayable",
      "type": "function"
    },
    {
      "inputs": [
        {
          "internalType": "uint256",
          "name": "_token",
          "type": "uint256"
        }
      ],
      "name": "putPropertyOnSale",
      "outputs": [],
      "stateMutability": "nonpayable",
      "type": "function"
    },
    {
      "inputs": [
        {
          "internalType": "uint256",
          "name": "_token",
          "type": "uint256"
        }
      ],
      "name": "takePropertyOffSale",
      "outputs": [],
      "stateMutability": "nonpayable",
      "type": "function"
    },
    {
      "inputs": [
        {
          "internalType": "address",
          "name": "id",
          "type": "address"
        }
      ],
      "name": "myAllprop",
      "outputs": [
        {
          "internalType": "uint256[]",
          "name": "",
          "type": "uint256[]"
        }
      ],
      "stateMutability": "view",
      "type": "function",
      "constant": true
    },
    {
      "inputs": [
        {
          "internalType": "uint256",
          "name": "_PropId",
          "type": "uint256"
        },
        {
          "internalType": "uint256",
          "name": "_surveyno",
          "type": "uint256"
        },
        {
          "internalType": "uint256",
          "name": "_amt",
          "type": "uint256"
        }
      ],
      "name": "requestforBuy",
      "outputs": [],
      "stateMutability": "nonpayable",
      "type": "function"
    },
    {
      "inputs": [],
      "name": "myReceivedLandRequests",
      "outputs": [
        {
          "internalType": "uint256[]",
          "name": "",
          "type": "uint256[]"
        }
      ],
      "stateMutability": "view",
      "type": "function",
      "constant": true
    },
    {
      "inputs": [],
      "name": "mySentLandRequests",
      "outputs": [
        {
          "internalType": "uint256[]",
          "name": "",
          "type": "uint256[]"
        }
      ],
      "stateMutability": "view",
      "type": "function",
      "constant": true
    },
    {
      "inputs": [
        {
          "internalType": "uint256",
          "name": "_requestId",
          "type": "uint256"
        }
      ],
      "name": "acceptRequest",
      "outputs": [],
      "stateMutability": "nonpayable",
      "type": "function"
    },
    {
      "inputs": [
        {
          "internalType": "uint256",
          "name": "_requestId",
          "type": "uint256"
        }
      ],
      "name": "rejectRequest",
      "outputs": [],
      "stateMutability": "nonpayable",
      "type": "function"
    },
    {
      "inputs": [
        {
          "internalType": "uint256",
          "name": "_requestId",
          "type": "uint256"
        }
      ],
      "name": "requesteStatus",
      "outputs": [
        {
          "internalType": "bool",
          "name": "",
          "type": "bool"
        }
      ],
      "stateMutability": "view",
      "type": "function",
      "constant": true
    },
    {
      "inputs": [
        {
          "internalType": "uint256",
          "name": "_surveyNo",
          "type": "uint256"
        }
      ],
      "name": "propPrice",
      "outputs": [
        {
          "internalType": "uint256",
          "name": "",
          "type": "uint256"
        }
      ],
      "stateMutability": "view",
      "type": "function",
      "constant": true
    },
    {
      "inputs": [
        {
          "internalType": "uint256",
          "name": "_requestId",
          "type": "uint256"
        }
      ],
      "name": "makePayment",
      "outputs": [],
      "stateMutability": "payable",
      "type": "function",
      "payable": true
    },
    {
      "inputs": [
        {
          "internalType": "uint256",
          "name": "_surveyNo",
          "type": "uint256"
        }
      ],
      "name": "getPropDetails",
      "outputs": [
        {
          "internalType": "address",
          "name": "",
          "type": "address"
        },
        {
          "internalType": "uint256",
          "name": "",
          "type": "uint256"
        },
        {
          "internalType": "uint256",
          "name": "",
          "type": "uint256"
        },
        {
          "internalType": "uint256",
          "name": "",
          "type": "uint256"
        },
        {
          "internalType": "uint256",
          "name": "",
          "type": "uint256"
        },
        {
          "internalType": "string",
          "name": "",
          "type": "string"
        }
      ],
      "stateMutability": "view",
      "type": "function",
      "constant": true
    },
    {
      "inputs": [],
      "name": "getUserProfile",
      "outputs": [
        {
          "internalType": "address",
          "name": "",
          "type": "address"
        },
        {
          "internalType": "string",
          "name": "",
          "type": "string"
        },
        {
          "internalType": "uint256",
          "name": "",
          "type": "uint256"
        }
      ],
      "stateMutability": "view",
      "type": "function",
      "constant": true
    },
    {
      "inputs": [
        {
          "internalType": "uint256",
          "name": "_surveyNo",
          "type": "uint256"
        }
      ],
      "name": "isAvailable",
      "outputs": [
        {
          "internalType": "bool",
          "name": "",
          "type": "bool"
        }
      ],
      "stateMutability": "view",
      "type": "function",
      "constant": true
    },
    {
      "inputs": [],
      "name": "getIndices",
      "outputs": [
        {
          "internalType": "uint256",
          "name": "",
          "type": "uint256"
        },
        {
          "internalType": "uint256",
          "name": "",
          "type": "uint256"
        }
      ],
      "stateMutability": "view",
      "type": "function",
      "constant": true
    },
    {
      "inputs": [],
      "name": "getOwnerOwns",
      "outputs": [
        {
          "internalType": "uint256",
          "name": "",
          "type": "uint256"
        }
      ],
      "stateMutability": "view",
      "type": "function",
      "constant": true
    },
    {
      "inputs": [],
      "name": "markMyPropertyAvailable",
      "outputs": [],
      "stateMutability": "nonpayable",
      "type": "function"
    },
    {
      "inputs": [
        {
          "internalType": "uint256",
          "name": "_surveyNo",
          "type": "uint256"
        }
      ],
      "name": "didIRequested",
      "outputs": [
        {
          "internalType": "bool",
          "name": "",
          "type": "bool"
        }
      ],
      "stateMutability": "view",
      "type": "function",
      "constant": true
    },
    {
      "inputs": [
        {
          "internalType": "uint256",
          "name": "_surveyNo",
          "type": "uint256"
        }
      ],
      "name": "RequestForBuy",
      "outputs": [],
      "stateMutability": "nonpayable",
      "type": "function"
    }
  ],
  "bytecode": "0x60806040526000600a553480156200001657600080fd5b506040518060400160405280600c81526020017f50726f7065727479204e465400000000000000000000000000000000000000008152506040518060400160405280600481526020017f504e465400000000000000000000000000000000000000000000000000000000815250816000908162000094919062000372565b508060019081620000a6919062000372565b50505033600660006101000a81548173ffffffffffffffffffffffffffffffffffffffff021916908373ffffffffffffffffffffffffffffffffffffffff160217905550600060088190555062000459565b600081519050919050565b7f4e487b7100000000000000000000000000000000000000000000000000000000600052604160045260246000fd5b7f4e487b7100000000000000000000000000000000000000000000000000000000600052602260045260246000fd5b600060028204905060018216806200017a57607f821691505b60208210810362000190576200018f62000132565b5b50919050565b60008190508160005260206000209050919050565b60006020601f8301049050919050565b600082821b905092915050565b600060088302620001fa7fffffffffffffffffffffffffffffffffffffffffffffffffffffffffffffffff82620001bb565b620002068683620001bb565b95508019841693508086168417925050509392505050565b6000819050919050565b6000819050919050565b6000620002536200024d62000247846200021e565b62000228565b6200021e565b9050919050565b6000819050919050565b6200026f8362000232565b620002876200027e826200025a565b848454620001c8565b825550505050565b600090565b6200029e6200028f565b620002ab81848462000264565b505050565b5b81811015620002d357620002c760008262000294565b600181019050620002b1565b5050565b601f8211156200032257620002ec8162000196565b620002f784620001ab565b8101602085101562000307578190505b6200031f6200031685620001ab565b830182620002b0565b50505b505050565b600082821c905092915050565b6000620003476000198460080262000327565b1980831691505092915050565b600062000362838362000334565b9150826002028217905092915050565b6200037d82620000f8565b67ffffffffffffffff81111562000399576200039862000103565b5b620003a5825462000161565b620003b2828285620002d7565b600060209050601f831160018114620003ea5760008415620003d5578287015190505b620003e1858262000354565b86555062000451565b601f198416620003fa8662000196565b60005b828110156200042457848901518255600182019150602085019450602081019050620003fd565b8683101562000444578489015162000440601f89168262000334565b8355505b6001600288020188555050505b505050505050565b615c5980620004696000396000f3fe6080604052600436106102675760003560e01c80636352211e11610144578063bb094d93116100b6578063d8513de41161007a578063d8513de41461099c578063e55bb1a8146109d9578063e985e9c514610a1b578063eb68048b14610a58578063f712ea0914610a83578063ff35623714610aac57610267565b8063bb094d93146108a5578063c87b56dd146108ce578063d082e3811461090b578063d1dbeff214610936578063d43039701461097357610267565b806395db3a331161010857806395db3a33146107a95780639c32e3b4146107d2578063a185cbdc146107fd578063a22cb46514610828578063b6db75a014610851578063b88d4fde1461087c57610267565b80636352211e1461069a5780636f61c744146106d7578063704802751461070457806370a082311461074157806395d89b411461077e57610267565b80632e4176cf116101dd5780634ba1f098116101a15780634ba1f098146105985780634d89ffcb146105c15780634f212b27146105d85780635114cb52146106155780635863056d146106315780635bd557441461065d57610267565b80632e4176cf1461049f5780633a178d99146104ca57806342842e0e14610507578063429b62e514610530578063499701b21461056d57610267565b80631c5220c21161022f5780631c5220c2146103775780631c8e8962146103a0578063222edaeb146103e157806323b872dd1461040a5780632cf7308f146104335780632d7788db1461047657610267565b806301ffc9a71461026c57806306fdde03146102a9578063081812fc146102d4578063095ea7b3146103115780630ef53a8f1461033a575b600080fd5b34801561027857600080fd5b50610293600480360381019061028e919061407d565b610ad5565b6040516102a091906140c5565b60405180910390f35b3480156102b557600080fd5b506102be610bb7565b6040516102cb9190614170565b60405180910390f35b3480156102e057600080fd5b506102fb60048036038101906102f691906141c8565b610c49565b6040516103089190614236565b60405180910390f35b34801561031d57600080fd5b506103386004803603810190610333919061427d565b610c8f565b005b34801561034657600080fd5b50610361600480360381019061035c91906142bd565b610da6565b60405161036e91906143a8565b60405180910390f35b34801561038357600080fd5b5061039e600480360381019061039991906144ff565b610e3d565b005b3480156103ac57600080fd5b506103c760048036038101906103c291906142bd565b610ea0565b6040516103d895949392919061456a565b60405180910390f35b3480156103ed57600080fd5b50610408600480360381019061040391906141c8565b610f7e565b005b34801561041657600080fd5b50610431600480360381019061042c91906145c4565b61109e565b005b34801561043f57600080fd5b5061045a6004803603810190610455919061427d565b6110fe565b60405161046d97969594939291906146af565b60405180910390f35b34801561048257600080fd5b5061049d600480360381019061049891906141c8565b6111a7565b005b3480156104ab57600080fd5b506104b46112d1565b6040516104c19190614236565b60405180910390f35b3480156104d657600080fd5b506104f160048036038101906104ec91906141c8565b6112f7565b6040516104fe91906140c5565b60405180910390f35b34801561051357600080fd5b5061052e600480360381019061052991906145c4565b611329565b005b34801561053c57600080fd5b50610557600480360381019061055291906142bd565b611349565b6040516105649190614236565b60405180910390f35b34801561057957600080fd5b50610582611387565b60405161058f91906143a8565b60405180910390f35b3480156105a457600080fd5b506105bf60048036038101906105ba91906141c8565b61141c565b005b3480156105cd57600080fd5b506105d6611546565b005b3480156105e457600080fd5b506105ff60048036038101906105fa91906141c8565b61163a565b60405161060c91906140c5565b60405180910390f35b61062f600480360381019061062a91906141c8565b611710565b005b34801561063d57600080fd5b50610646611af5565b60405161065492919061471e565b60405180910390f35b34801561066957600080fd5b50610684600480360381019061067f91906141c8565b611b92565b6040516106919190614747565b60405180910390f35b3480156106a657600080fd5b506106c160048036038101906106bc91906141c8565b611bb2565b6040516106ce9190614236565b60405180910390f35b3480156106e357600080fd5b506106ec611c38565b6040516106fb93929190614762565b60405180910390f35b34801561071057600080fd5b5061072b600480360381019061072691906142bd565b611d63565b60405161073891906140c5565b60405180910390f35b34801561074d57600080fd5b50610768600480360381019061076391906142bd565b611e67565b6040516107759190614747565b60405180910390f35b34801561078a57600080fd5b50610793611f1e565b6040516107a09190614170565b60405180910390f35b3480156107b557600080fd5b506107d060048036038101906107cb91906141c8565b611fb0565b005b3480156107de57600080fd5b506107e76121f5565b6040516107f491906143a8565b60405180910390f35b34801561080957600080fd5b5061081261228a565b60405161081f9190614747565b60405180910390f35b34801561083457600080fd5b5061084f600480360381019061084a91906147cc565b6122ea565b005b34801561085d57600080fd5b50610866612300565b60405161087391906140c5565b60405180910390f35b34801561088857600080fd5b506108a3600480360381019061089e91906148ad565b6123a8565b005b3480156108b157600080fd5b506108cc60048036038101906108c7919061495c565b61240a565b005b3480156108da57600080fd5b506108f560048036038101906108f091906141c8565b612843565b6040516109029190614170565b60405180910390f35b34801561091757600080fd5b506109206128ab565b60405161092d9190614747565b60405180910390f35b34801561094257600080fd5b5061095d6004803603810190610958919061427d565b6128b1565b60405161096a9190614747565b60405180910390f35b34801561097f57600080fd5b5061099a60048036038101906109959190614a21565b6128dc565b005b3480156109a857600080fd5b506109c360048036038101906109be91906141c8565b612c5e565b6040516109d091906140c5565b60405180910390f35b3480156109e557600080fd5b50610a0060048036038101906109fb91906141c8565b612cc8565b604051610a1296959493929190614a74565b60405180910390f35b348015610a2757600080fd5b50610a426004803603810190610a3d9190614adc565b612e3d565b604051610a4f91906140c5565b60405180910390f35b348015610a6457600080fd5b50610a6d612ed1565b604051610a7a9190614747565b60405180910390f35b348015610a8f57600080fd5b50610aaa6004803603810190610aa591906141c8565b612ed7565b005b348015610ab857600080fd5b50610ad36004803603810190610ace9190614b1c565b612ff7565b005b60007f80ac58cd000000000000000000000000000000000000000000000000000000007bffffffffffffffffffffffffffffffffffffffffffffffffffffffff1916827bffffffffffffffffffffffffffffffffffffffffffffffffffffffff19161480610ba057507f5b5e139f000000000000000000000000000000000000000000000000000000007bffffffffffffffffffffffffffffffffffffffffffffffffffffffff1916827bffffffffffffffffffffffffffffffffffffffffffffffffffffffff1916145b80610bb05750610baf82613243565b5b9050919050565b606060008054610bc690614b8b565b80601f0160208091040260200160405190810160405280929190818152602001828054610bf290614b8b565b8015610c3f5780601f10610c1457610100808354040283529160200191610c3f565b820191906000526020600020905b815481529060010190602001808311610c2257829003601f168201915b5050505050905090565b6000610c54826132ad565b6004600083815260200190815260200160002060009054906101000a900473ffffffffffffffffffffffffffffffffffffffff169050919050565b6000610c9a82611bb2565b90508073ffffffffffffffffffffffffffffffffffffffff168373ffffffffffffffffffffffffffffffffffffffff1603610d0a576040517f08c379a0000000000000000000000000000000000000000000000000000000008152600401610d0190614c2e565b60405180910390fd5b8073ffffffffffffffffffffffffffffffffffffffff16610d296132f8565b73ffffffffffffffffffffffffffffffffffffffff161480610d585750610d5781610d526132f8565b612e3d565b5b610d97576040517f08c379a0000000000000000000000000000000000000000000000000000000008152600401610d8e90614cc0565b60405180910390fd5b610da18383613300565b505050565b6060601160008373ffffffffffffffffffffffffffffffffffffffff1673ffffffffffffffffffffffffffffffffffffffff168152602001908152602001600020805480602002602001604051908101604052809291908181526020018280548015610e3157602002820191906000526020600020905b815481526020019060010190808311610e1d575b50505050509050919050565b6000600e60003373ffffffffffffffffffffffffffffffffffffffff1673ffffffffffffffffffffffffffffffffffffffff168152602001908152602001600020905082816001019081610e919190614e8c565b50818160020181905550505050565b600e6020528060005260406000206000915090508060000160009054906101000a900473ffffffffffffffffffffffffffffffffffffffff1690806001018054610ee990614b8b565b80601f0160208091040260200160405190810160405280929190818152602001828054610f1590614b8b565b8015610f625780601f10610f3757610100808354040283529160200191610f62565b820191906000526020600020905b815481529060010190602001808311610f4557829003601f168201915b5050505050908060020154908060030154908060040154905085565b803373ffffffffffffffffffffffffffffffffffffffff16610f9f82611bb2565b73ffffffffffffffffffffffffffffffffffffffff1614610ff5576040517f08c379a0000000000000000000000000000000000000000000000000000000008152600401610fec90614fd0565b60405180910390fd5b3373ffffffffffffffffffffffffffffffffffffffff1661101583611bb2565b73ffffffffffffffffffffffffffffffffffffffff161461106b576040517f08c379a000000000000000000000000000000000000000000000000000000000815260040161106290615062565b60405180910390fd5b6001600c600084815260200190815260200160002060080160016101000a81548160ff0219169083151502179055505050565b6110af6110a96132f8565b826133b9565b6110ee576040517f08c379a00000000000000000000000000000000000000000000000000000000081526004016110e5906150f4565b60405180910390fd5b6110f983838361344e565b505050565b600f602052816000526040600020602052806000526040600020600091509150508060000154908060010160009054906101000a900473ffffffffffffffffffffffffffffffffffffffff16908060020160009054906101000a900473ffffffffffffffffffffffffffffffffffffffff16908060030154908060040160009054906101000a900460ff16908060050154908060060160009054906101000a900460ff16905087565b3373ffffffffffffffffffffffffffffffffffffffff16600f60003373ffffffffffffffffffffffffffffffffffffffff1673ffffffffffffffffffffffffffffffffffffffff168152602001908152602001600020600083815260200190815260200160002060010160009054906101000a900473ffffffffffffffffffffffffffffffffffffffff1673ffffffffffffffffffffffffffffffffffffffff161461125257600080fd5b6002600f60003373ffffffffffffffffffffffffffffffffffffffff1673ffffffffffffffffffffffffffffffffffffffff168152602001908152602001600020600083815260200190815260200160002060040160006101000a81548160ff021916908360048111156112c9576112c8614638565b5b021790555050565b600660009054906101000a900473ffffffffffffffffffffffffffffffffffffffff1681565b600080600c600084815260200190815260200160002060080160019054906101000a900460ff16905080915050919050565b611344838383604051806020016040528060008152506123a8565b505050565b60106020528060005260406000206000915090508060000160009054906101000a900473ffffffffffffffffffffffffffffffffffffffff16905081565b6060601260003373ffffffffffffffffffffffffffffffffffffffff1673ffffffffffffffffffffffffffffffffffffffff16815260200190815260200160002080548060200260200160405190810160405280929190818152602001828054801561141257602002820191906000526020600020905b8154815260200190600101908083116113fe575b5050505050905090565b3373ffffffffffffffffffffffffffffffffffffffff16600f60003373ffffffffffffffffffffffffffffffffffffffff1673ffffffffffffffffffffffffffffffffffffffff168152602001908152602001600020600083815260200190815260200160002060010160009054906101000a900473ffffffffffffffffffffffffffffffffffffffff1673ffffffffffffffffffffffffffffffffffffffff16146114c757600080fd5b6001600f60003373ffffffffffffffffffffffffffffffffffffffff1673ffffffffffffffffffffffffffffffffffffffff168152602001908152602001600020600083815260200190815260200160002060040160006101000a81548160ff0219169083600481111561153e5761153d614638565b5b021790555050565b6000600b60003373ffffffffffffffffffffffffffffffffffffffff1673ffffffffffffffffffffffffffffffffffffffff168152602001908152602001600020600080815260200190815260200160002060000154905060001515600c600083815260200190815260200160002060080160019054906101000a900460ff16151514611608576040517f08c379a00000000000000000000000000000000000000000000000000000000081526004016115ff90615186565b60405180910390fd5b6001600c600083815260200190815260200160002060080160016101000a81548160ff02191690831515021790555050565b600080600c60008481526020019081526020016000209050600081600b015490506000810361166e5760009250505061170b565b60005b81811015611703573373ffffffffffffffffffffffffffffffffffffffff1683600c01600083815260200190815260200160002060000160009054906101000a900473ffffffffffffffffffffffffffffffffffffffff1673ffffffffffffffffffffffffffffffffffffffff16036116f0576001935050505061170b565b80806116fb906151d5565b915050611671565b506000925050505b919050565b3373ffffffffffffffffffffffffffffffffffffffff16600f60003373ffffffffffffffffffffffffffffffffffffffff1673ffffffffffffffffffffffffffffffffffffffff168152602001908152602001600020600083815260200190815260200160002060020160009054906101000a900473ffffffffffffffffffffffffffffffffffffffff1673ffffffffffffffffffffffffffffffffffffffff161480156118425750600160048111156117cd576117cc614638565b5b600f60003373ffffffffffffffffffffffffffffffffffffffff1673ffffffffffffffffffffffffffffffffffffffff168152602001908152602001600020600083815260200190815260200160002060040160009054906101000a900460ff1660048111156118405761183f614638565b5b145b61184b57600080fd5b6003600f60003373ffffffffffffffffffffffffffffffffffffffff1673ffffffffffffffffffffffffffffffffffffffff168152602001908152602001600020600083815260200190815260200160002060040160006101000a81548160ff021916908360048111156118c2576118c1614638565b5b0217905550600c6000600f60003373ffffffffffffffffffffffffffffffffffffffff1673ffffffffffffffffffffffffffffffffffffffff168152602001908152602001600020600084815260200190815260200160002060030154815260200190815260200160002060000160009054906101000a900473ffffffffffffffffffffffffffffffffffffffff1673ffffffffffffffffffffffffffffffffffffffff166108fc349081150290604051600060405180830381858888f19350505050158015611996573d6000803e3d6000fd5b506001600f60003373ffffffffffffffffffffffffffffffffffffffff1673ffffffffffffffffffffffffffffffffffffffff168152602001908152602001600020600083815260200190815260200160002060060160006101000a81548160ff02191690831515021790555080600c6000600f60003373ffffffffffffffffffffffffffffffffffffffff1673ffffffffffffffffffffffffffffffffffffffff168152602001908152602001600020600085815260200190815260200160002060030154815260200190815260200160002060000160009054906101000a900473ffffffffffffffffffffffffffffffffffffffff1673ffffffffffffffffffffffffffffffffffffffff163373ffffffffffffffffffffffffffffffffffffffff167fb2cb3c5768049f800dd544ff7b8f454a4f3bb97c728b01bbd8bc382fdd2d32ed34604051611aea9190614747565b60405180910390a450565b6000806000600e60003373ffffffffffffffffffffffffffffffffffffffff1673ffffffffffffffffffffffffffffffffffffffff1681526020019081526020016000206003015490506000600e60003373ffffffffffffffffffffffffffffffffffffffff1673ffffffffffffffffffffffffffffffffffffffff16815260200190815260200160002060040154905081819350935050509091565b6000600c6000838152602001908152602001600020600601549050919050565b600080611bbe83613747565b9050600073ffffffffffffffffffffffffffffffffffffffff168173ffffffffffffffffffffffffffffffffffffffff1603611c2f576040517f08c379a0000000000000000000000000000000000000000000000000000000008152600401611c2690615269565b60405180910390fd5b80915050919050565b60006060600080600e60003373ffffffffffffffffffffffffffffffffffffffff1673ffffffffffffffffffffffffffffffffffffffff1681526020019081526020016000206001018054611c8c90614b8b565b80601f0160208091040260200160405190810160405280929190818152602001828054611cb890614b8b565b8015611d055780601f10611cda57610100808354040283529160200191611d05565b820191906000526020600020905b815481529060010190602001808311611ce857829003601f168201915b505050505090506000600e60003373ffffffffffffffffffffffffffffffffffffffff1673ffffffffffffffffffffffffffffffffffffffff1681526020019081526020016000206002015490503382829450945094505050909192565b60003373ffffffffffffffffffffffffffffffffffffffff16600660009054906101000a900473ffffffffffffffffffffffffffffffffffffffff1673ffffffffffffffffffffffffffffffffffffffff1614611dbf57600080fd5b6000601060008473ffffffffffffffffffffffffffffffffffffffff1673ffffffffffffffffffffffffffffffffffffffff168152602001908152602001600020905060096000815480929190611e15906151d5565b9190505550828160000160006101000a81548173ffffffffffffffffffffffffffffffffffffffff021916908373ffffffffffffffffffffffffffffffffffffffff1602179055506001915050919050565b60008073ffffffffffffffffffffffffffffffffffffffff168273ffffffffffffffffffffffffffffffffffffffff1603611ed7576040517f08c379a0000000000000000000000000000000000000000000000000000000008152600401611ece906152fb565b60405180910390fd5b600360008373ffffffffffffffffffffffffffffffffffffffff1673ffffffffffffffffffffffffffffffffffffffff168152602001908152602001600020549050919050565b606060018054611f2d90614b8b565b80601f0160208091040260200160405190810160405280929190818152602001828054611f5990614b8b565b8015611fa65780601f10611f7b57610100808354040283529160200191611fa6565b820191906000526020600020905b815481529060010190602001808311611f8957829003601f168201915b5050505050905090565b6000600c60008381526020019081526020016000209050600115158160080160019054906101000a900460ff1615151461201f576040517f08c379a00000000000000000000000000000000000000000000000000000000081526004016120169061538d565b60405180910390fd5b600081600b015490503382600c01600083815260200190815260200160002060000160006101000a81548173ffffffffffffffffffffffffffffffffffffffff021916908373ffffffffffffffffffffffffffffffffffffffff160217905550600e60003373ffffffffffffffffffffffffffffffffffffffff1673ffffffffffffffffffffffffffffffffffffffff1681526020019081526020016000206004015482600c0160008381526020019081526020016000206001018190555081600b0160008154809291906120f3906151d5565b91905055506000600f60003373ffffffffffffffffffffffffffffffffffffffff1673ffffffffffffffffffffffffffffffffffffffff1681526020019081526020016000206000600e60003373ffffffffffffffffffffffffffffffffffffffff1673ffffffffffffffffffffffffffffffffffffffff1681526020019081526020016000206004015481526020019081526020016000209050838160000181905550600e60003373ffffffffffffffffffffffffffffffffffffffff1673ffffffffffffffffffffffffffffffffffffffff16815260200190815260200160002060040160008154809291906121ea906151d5565b919050555050505050565b6060601360003373ffffffffffffffffffffffffffffffffffffffff1673ffffffffffffffffffffffffffffffffffffffff16815260200190815260200160002080548060200260200160405190810160405280929190818152602001828054801561228057602002820191906000526020600020905b81548152602001906001019080831161226c575b5050505050905090565b600080600b60003373ffffffffffffffffffffffffffffffffffffffff1673ffffffffffffffffffffffffffffffffffffffff16815260200190815260200160002060008081526020019081526020016000206000015490508091505090565b6122fc6122f56132f8565b8383613784565b5050565b60003373ffffffffffffffffffffffffffffffffffffffff16601060003373ffffffffffffffffffffffffffffffffffffffff1673ffffffffffffffffffffffffffffffffffffffff16815260200190815260200160002060000160009054906101000a900473ffffffffffffffffffffffffffffffffffffffff1673ffffffffffffffffffffffffffffffffffffffff16036123a057600190506123a5565b600090505b90565b6123b96123b36132f8565b836133b9565b6123f8576040517f08c379a00000000000000000000000000000000000000000000000000000000081526004016123ef906150f4565b60405180910390fd5b612404848484846138f0565b50505050565b3373ffffffffffffffffffffffffffffffffffffffff16601060003373ffffffffffffffffffffffffffffffffffffffff1673ffffffffffffffffffffffffffffffffffffffff16815260200190815260200160002060000160009054906101000a900473ffffffffffffffffffffffffffffffffffffffff1673ffffffffffffffffffffffffffffffffffffffff16146124da576040517f08c379a00000000000000000000000000000000000000000000000000000000081526004016124d1906153f9565b60405180910390fd5b60001515600c6000868152602001908152602001600020600a0160009054906101000a900460ff16151514612544576040517f08c379a000000000000000000000000000000000000000000000000000000000815260040161253b9061548b565b60405180910390fd5b60086000815480929190612557906151d5565b91905055506125683360085461394c565b6000600c600086815260200190815260200160002090506000600b60008673ffffffffffffffffffffffffffffffffffffffff1673ffffffffffffffffffffffffffffffffffffffff1681526020019081526020016000206000600e60008873ffffffffffffffffffffffffffffffffffffffff1673ffffffffffffffffffffffffffffffffffffffff1681526020019081526020016000206003015481526020019081526020016000209050878260030190816126269190614e8c565b50868260040190816126389190614e8c565b50848260000160006101000a81548173ffffffffffffffffffffffffffffffffffffffff021916908373ffffffffffffffffffffffffffffffffffffffff160217905550338260010160006101000a81548173ffffffffffffffffffffffffffffffffffffffff021916908373ffffffffffffffffffffffffffffffffffffffff1602179055506008548260020181905550858260070181905550600e60008673ffffffffffffffffffffffffffffffffffffffff1673ffffffffffffffffffffffffffffffffffffffff168152602001908152602001600020600301548260090181905550600182600a0160006101000a81548160ff02191690831515021790555083826006018190555060008260080160016101000a81548160ff02191690831515021790555060018260080160006101000a81548160ff0219169083600381111561278957612788614638565b5b0217905550828260050181905550858160000181905550600e60008673ffffffffffffffffffffffffffffffffffffffff1673ffffffffffffffffffffffffffffffffffffffff16815260200190815260200160002060030160008154809291906127f3906151d5565b91905055507fdf888166ff5dc3d9da819726573e6de6984159471e623f533fe998e51da84bb888888888888860405161283196959493929190615500565b60405180910390a15050505050505050565b606061284e826132ad565b600061285861396a565b9050600081511161287857604051806020016040528060008152506128a3565b8061288284613981565b6040516020016128939291906155ab565b6040516020818303038152906040525b915050919050565b60085481565b600b602052816000526040600020602052806000526040600020600091509150508060000154905081565b33600760006101000a81548173ffffffffffffffffffffffffffffffffffffffff021916908373ffffffffffffffffffffffffffffffffffffffff160217905550600a6000815480929190612930906151d5565b91905055506040518060e00160405280838152602001600c600086815260200190815260200160002060000160009054906101000a900473ffffffffffffffffffffffffffffffffffffffff1673ffffffffffffffffffffffffffffffffffffffff168152602001600760009054906101000a900473ffffffffffffffffffffffffffffffffffffffff1673ffffffffffffffffffffffffffffffffffffffff168152602001848152602001600060048111156129f0576129ef614638565b5b815260200182815260200160001515815250600f60003373ffffffffffffffffffffffffffffffffffffffff1673ffffffffffffffffffffffffffffffffffffffff1681526020019081526020016000206000600a5481526020019081526020016000206000820151816000015560208201518160010160006101000a81548173ffffffffffffffffffffffffffffffffffffffff021916908373ffffffffffffffffffffffffffffffffffffffff16021790555060408201518160020160006101000a81548173ffffffffffffffffffffffffffffffffffffffff021916908373ffffffffffffffffffffffffffffffffffffffff1602179055506060820151816003015560808201518160040160006101000a81548160ff02191690836004811115612b2157612b20614638565b5b021790555060a0820151816005015560c08201518160060160006101000a81548160ff02191690831515021790555090505060126000600c600086815260200190815260200160002060000160009054906101000a900473ffffffffffffffffffffffffffffffffffffffff1673ffffffffffffffffffffffffffffffffffffffff1673ffffffffffffffffffffffffffffffffffffffff168152602001908152602001600020600a549080600181540180825580915050600190039060005260206000200160009091909190915055601360003373ffffffffffffffffffffffffffffffffffffffff1673ffffffffffffffffffffffffffffffffffffffff168152602001908152602001600020600a549080600181540180825580915050600190039060005260206000200160009091909190915055505050565b6000600f60003373ffffffffffffffffffffffffffffffffffffffff1673ffffffffffffffffffffffffffffffffffffffff168152602001908152602001600020600083815260200190815260200160002060060160009054906101000a900460ff169050919050565b600080600080600060606000600c600089815260200190815260200160002060000160009054906101000a900473ffffffffffffffffffffffffffffffffffffffff1690506000600c60008a81526020019081526020016000206002015490506000600c60008b81526020019081526020016000206009015490506000600c60008c81526020019081526020016000206005015490506000600c60008d81526020019081526020016000206006015490506000600c60008e81526020019081526020016000206004018054612d9c90614b8b565b80601f0160208091040260200160405190810160405280929190818152602001828054612dc890614b8b565b8015612e155780601f10612dea57610100808354040283529160200191612e15565b820191906000526020600020905b815481529060010190602001808311612df857829003601f168201915b505050505090508585858486859b509b509b509b509b509b5050505050505091939550919395565b6000600560008473ffffffffffffffffffffffffffffffffffffffff1673ffffffffffffffffffffffffffffffffffffffff16815260200190815260200160002060008373ffffffffffffffffffffffffffffffffffffffff1673ffffffffffffffffffffffffffffffffffffffff16815260200190815260200160002060009054906101000a900460ff16905092915050565b60095481565b803373ffffffffffffffffffffffffffffffffffffffff16612ef882611bb2565b73ffffffffffffffffffffffffffffffffffffffff1614612f4e576040517f08c379a0000000000000000000000000000000000000000000000000000000008152600401612f4590614fd0565b60405180910390fd5b3373ffffffffffffffffffffffffffffffffffffffff16612f6e83611bb2565b73ffffffffffffffffffffffffffffffffffffffff1614612fc4576040517f08c379a0000000000000000000000000000000000000000000000000000000008152600401612fbb90615641565b60405180910390fd5b6000600c600084815260200190815260200160002060080160016101000a81548160ff0219169083151502179055505050565b813373ffffffffffffffffffffffffffffffffffffffff1661301882611bb2565b73ffffffffffffffffffffffffffffffffffffffff161461306e576040517f08c379a000000000000000000000000000000000000000000000000000000000815260040161306590614fd0565b60405180910390fd5b3373ffffffffffffffffffffffffffffffffffffffff1661308e84611bb2565b73ffffffffffffffffffffffffffffffffffffffff16146130e4576040517f08c379a00000000000000000000000000000000000000000000000000000000081526004016130db906156d3565b60405180910390fd5b600260038111156130f8576130f7614638565b5b600c600085815260200190815260200160002060080160009054906101000a900460ff16600381111561312e5761312d614638565b5b0361316e576040517f08c379a000000000000000000000000000000000000000000000000000000000815260040161316590615765565b60405180910390fd5b60001515600c600085815260200190815260200160002060080160019054906101000a900460ff161515036131d8576040517f08c379a00000000000000000000000000000000000000000000000000000000081526004016131cf906157f7565b60405180910390fd5b6131e333838561344e565b828273ffffffffffffffffffffffffffffffffffffffff163373ffffffffffffffffffffffffffffffffffffffff167fe5894307e8efed03d242bcb85a749c24d96ebf0de331e3437138cccc00d2654260405160405180910390a4505050565b60007f01ffc9a7000000000000000000000000000000000000000000000000000000007bffffffffffffffffffffffffffffffffffffffffffffffffffffffff1916827bffffffffffffffffffffffffffffffffffffffffffffffffffffffff1916149050919050565b6132b681613a4f565b6132f5576040517f08c379a00000000000000000000000000000000000000000000000000000000081526004016132ec90615269565b60405180910390fd5b50565b600033905090565b816004600083815260200190815260200160002060006101000a81548173ffffffffffffffffffffffffffffffffffffffff021916908373ffffffffffffffffffffffffffffffffffffffff160217905550808273ffffffffffffffffffffffffffffffffffffffff1661337383611bb2565b73ffffffffffffffffffffffffffffffffffffffff167f8c5be1e5ebec7d5bd14f71427d1e84f3dd0314c0f7b2291e5b200ac8c7c3b92560405160405180910390a45050565b6000806133c583611bb2565b90508073ffffffffffffffffffffffffffffffffffffffff168473ffffffffffffffffffffffffffffffffffffffff16148061340757506134068185612e3d565b5b8061344557508373ffffffffffffffffffffffffffffffffffffffff1661342d84610c49565b73ffffffffffffffffffffffffffffffffffffffff16145b91505092915050565b8273ffffffffffffffffffffffffffffffffffffffff1661346e82611bb2565b73ffffffffffffffffffffffffffffffffffffffff16146134c4576040517f08c379a00000000000000000000000000000000000000000000000000000000081526004016134bb90615889565b60405180910390fd5b600073ffffffffffffffffffffffffffffffffffffffff168273ffffffffffffffffffffffffffffffffffffffff1603613533576040517f08c379a000000000000000000000000000000000000000000000000000000000815260040161352a9061591b565b60405180910390fd5b6135408383836001613a90565b8273ffffffffffffffffffffffffffffffffffffffff1661356082611bb2565b73ffffffffffffffffffffffffffffffffffffffff16146135b6576040517f08c379a00000000000000000000000000000000000000000000000000000000081526004016135ad90615889565b60405180910390fd5b6004600082815260200190815260200160002060006101000a81549073ffffffffffffffffffffffffffffffffffffffff02191690556001600360008573ffffffffffffffffffffffffffffffffffffffff1673ffffffffffffffffffffffffffffffffffffffff168152602001908152602001600020600082825403925050819055506001600360008473ffffffffffffffffffffffffffffffffffffffff1673ffffffffffffffffffffffffffffffffffffffff16815260200190815260200160002060008282540192505081905550816002600083815260200190815260200160002060006101000a81548173ffffffffffffffffffffffffffffffffffffffff021916908373ffffffffffffffffffffffffffffffffffffffff160217905550808273ffffffffffffffffffffffffffffffffffffffff168473ffffffffffffffffffffffffffffffffffffffff167fddf252ad1be2c89b69c2b068fc378daa952ba7f163c4a11628f55a4df523b3ef60405160405180910390a46137428383836001613a96565b505050565b60006002600083815260200190815260200160002060009054906101000a900473ffffffffffffffffffffffffffffffffffffffff169050919050565b8173ffffffffffffffffffffffffffffffffffffffff168373ffffffffffffffffffffffffffffffffffffffff16036137f2576040517f08c379a00000000000000000000000000000000000000000000000000000000081526004016137e990615987565b60405180910390fd5b80600560008573ffffffffffffffffffffffffffffffffffffffff1673ffffffffffffffffffffffffffffffffffffffff16815260200190815260200160002060008473ffffffffffffffffffffffffffffffffffffffff1673ffffffffffffffffffffffffffffffffffffffff16815260200190815260200160002060006101000a81548160ff0219169083151502179055508173ffffffffffffffffffffffffffffffffffffffff168373ffffffffffffffffffffffffffffffffffffffff167f17307eab39ab6107e8899845ad3d59bd9653f200f220920489ca2b5937696c31836040516138e391906140c5565b60405180910390a3505050565b6138fb84848461344e565b61390784848484613a9c565b613946576040517f08c379a000000000000000000000000000000000000000000000000000000000815260040161393d90615a19565b60405180910390fd5b50505050565b613966828260405180602001604052806000815250613c23565b5050565b606060405180602001604052806000815250905090565b60606000600161399084613c7e565b01905060008167ffffffffffffffff8111156139af576139ae6143d4565b5b6040519080825280601f01601f1916602001820160405280156139e15781602001600182028036833780820191505090505b509050600082602001820190505b600115613a44578080600190039150507f3031323334353637383961626364656600000000000000000000000000000000600a86061a8153600a8581613a3857613a37615a39565b5b049450600085036139ef575b819350505050919050565b60008073ffffffffffffffffffffffffffffffffffffffff16613a7183613747565b73ffffffffffffffffffffffffffffffffffffffff1614159050919050565b50505050565b50505050565b6000613abd8473ffffffffffffffffffffffffffffffffffffffff16613dd1565b15613c16578373ffffffffffffffffffffffffffffffffffffffff1663150b7a02613ae66132f8565b8786866040518563ffffffff1660e01b8152600401613b089493929190615abd565b6020604051808303816000875af1925050508015613b4457506040513d601f19601f82011682018060405250810190613b419190615b1e565b60015b613bc6573d8060008114613b74576040519150601f19603f3d011682016040523d82523d6000602084013e613b79565b606091505b506000815103613bbe576040517f08c379a0000000000000000000000000000000000000000000000000000000008152600401613bb590615a19565b60405180910390fd5b805181602001fd5b63150b7a0260e01b7bffffffffffffffffffffffffffffffffffffffffffffffffffffffff1916817bffffffffffffffffffffffffffffffffffffffffffffffffffffffff191614915050613c1b565b600190505b949350505050565b613c2d8383613df4565b613c3a6000848484613a9c565b613c79576040517f08c379a0000000000000000000000000000000000000000000000000000000008152600401613c7090615a19565b60405180910390fd5b505050565b600080600090507a184f03e93ff9f4daa797ed6e38ed64bf6a1f0100000000000000008310613cdc577a184f03e93ff9f4daa797ed6e38ed64bf6a1f0100000000000000008381613cd257613cd1615a39565b5b0492506040810190505b6d04ee2d6d415b85acef81000000008310613d19576d04ee2d6d415b85acef81000000008381613d0f57613d0e615a39565b5b0492506020810190505b662386f26fc100008310613d4857662386f26fc100008381613d3e57613d3d615a39565b5b0492506010810190505b6305f5e1008310613d71576305f5e1008381613d6757613d66615a39565b5b0492506008810190505b6127108310613d96576127108381613d8c57613d8b615a39565b5b0492506004810190505b60648310613db95760648381613daf57613dae615a39565b5b0492506002810190505b600a8310613dc8576001810190505b80915050919050565b6000808273ffffffffffffffffffffffffffffffffffffffff163b119050919050565b600073ffffffffffffffffffffffffffffffffffffffff168273ffffffffffffffffffffffffffffffffffffffff1603613e63576040517f08c379a0000000000000000000000000000000000000000000000000000000008152600401613e5a90615b97565b60405180910390fd5b613e6c81613a4f565b15613eac576040517f08c379a0000000000000000000000000000000000000000000000000000000008152600401613ea390615c03565b60405180910390fd5b613eba600083836001613a90565b613ec381613a4f565b15613f03576040517f08c379a0000000000000000000000000000000000000000000000000000000008152600401613efa90615c03565b60405180910390fd5b6001600360008473ffffffffffffffffffffffffffffffffffffffff1673ffffffffffffffffffffffffffffffffffffffff16815260200190815260200160002060008282540192505081905550816002600083815260200190815260200160002060006101000a81548173ffffffffffffffffffffffffffffffffffffffff021916908373ffffffffffffffffffffffffffffffffffffffff160217905550808273ffffffffffffffffffffffffffffffffffffffff16600073ffffffffffffffffffffffffffffffffffffffff167fddf252ad1be2c89b69c2b068fc378daa952ba7f163c4a11628f55a4df523b3ef60405160405180910390a461400d600083836001613a96565b5050565b6000604051905090565b600080fd5b600080fd5b60007fffffffff0000000000000000000000000000000000000000000000000000000082169050919050565b61405a81614025565b811461406557600080fd5b50565b60008135905061407781614051565b92915050565b6000602082840312156140935761409261401b565b5b60006140a184828501614068565b91505092915050565b60008115159050919050565b6140bf816140aa565b82525050565b60006020820190506140da60008301846140b6565b92915050565b600081519050919050565b600082825260208201905092915050565b60005b8381101561411a5780820151818401526020810190506140ff565b60008484015250505050565b6000601f19601f8301169050919050565b6000614142826140e0565b61414c81856140eb565b935061415c8185602086016140fc565b61416581614126565b840191505092915050565b6000602082019050818103600083015261418a8184614137565b905092915050565b6000819050919050565b6141a581614192565b81146141b057600080fd5b50565b6000813590506141c28161419c565b92915050565b6000602082840312156141de576141dd61401b565b5b60006141ec848285016141b3565b91505092915050565b600073ffffffffffffffffffffffffffffffffffffffff82169050919050565b6000614220826141f5565b9050919050565b61423081614215565b82525050565b600060208201905061424b6000830184614227565b92915050565b61425a81614215565b811461426557600080fd5b50565b60008135905061427781614251565b92915050565b600080604083850312156142945761429361401b565b5b60006142a285828601614268565b92505060206142b3858286016141b3565b9150509250929050565b6000602082840312156142d3576142d261401b565b5b60006142e184828501614268565b91505092915050565b600081519050919050565b600082825260208201905092915050565b6000819050602082019050919050565b61431f81614192565b82525050565b60006143318383614316565b60208301905092915050565b6000602082019050919050565b6000614355826142ea565b61435f81856142f5565b935061436a83614306565b8060005b8381101561439b5781516143828882614325565b975061438d8361433d565b92505060018101905061436e565b5085935050505092915050565b600060208201905081810360008301526143c2818461434a565b905092915050565b600080fd5b600080fd5b7f4e487b7100000000000000000000000000000000000000000000000000000000600052604160045260246000fd5b61440c82614126565b810181811067ffffffffffffffff8211171561442b5761442a6143d4565b5b80604052505050565b600061443e614011565b905061444a8282614403565b919050565b600067ffffffffffffffff82111561446a576144696143d4565b5b61447382614126565b9050602081019050919050565b82818337600083830152505050565b60006144a261449d8461444f565b614434565b9050828152602081018484840111156144be576144bd6143cf565b5b6144c9848285614480565b509392505050565b600082601f8301126144e6576144e56143ca565b5b81356144f684826020860161448f565b91505092915050565b600080604083850312156145165761451561401b565b5b600083013567ffffffffffffffff81111561453457614533614020565b5b614540858286016144d1565b9250506020614551858286016141b3565b9150509250929050565b61456481614192565b82525050565b600060a08201905061457f6000830188614227565b81810360208301526145918187614137565b90506145a0604083018661455b565b6145ad606083018561455b565b6145ba608083018461455b565b9695505050505050565b6000806000606084860312156145dd576145dc61401b565b5b60006145eb86828701614268565b93505060206145fc86828701614268565b925050604061460d868287016141b3565b9150509250925092565b6000614622826141f5565b9050919050565b61463281614617565b82525050565b7f4e487b7100000000000000000000000000000000000000000000000000000000600052602160045260246000fd5b6005811061467857614677614638565b5b50565b600081905061468982614667565b919050565b60006146998261467b565b9050919050565b6146a98161468e565b82525050565b600060e0820190506146c4600083018a61455b565b6146d16020830189614629565b6146de6040830188614629565b6146eb606083018761455b565b6146f860808301866146a0565b61470560a083018561455b565b61471260c08301846140b6565b98975050505050505050565b6000604082019050614733600083018561455b565b614740602083018461455b565b9392505050565b600060208201905061475c600083018461455b565b92915050565b60006060820190506147776000830186614227565b81810360208301526147898185614137565b9050614798604083018461455b565b949350505050565b6147a9816140aa565b81146147b457600080fd5b50565b6000813590506147c6816147a0565b92915050565b600080604083850312156147e3576147e261401b565b5b60006147f185828601614268565b9250506020614802858286016147b7565b9150509250929050565b600067ffffffffffffffff821115614827576148266143d4565b5b61483082614126565b9050602081019050919050565b600061485061484b8461480c565b614434565b90508281526020810184848401111561486c5761486b6143cf565b5b614877848285614480565b509392505050565b600082601f830112614894576148936143ca565b5b81356148a484826020860161483d565b91505092915050565b600080600080608085870312156148c7576148c661401b565b5b60006148d587828801614268565b94505060206148e687828801614268565b93505060406148f7878288016141b3565b925050606085013567ffffffffffffffff81111561491857614917614020565b5b6149248782880161487f565b91505092959194509250565b61493981614617565b811461494457600080fd5b50565b60008135905061495681614930565b92915050565b60008060008060008060c087890312156149795761497861401b565b5b600087013567ffffffffffffffff81111561499757614996614020565b5b6149a389828a016144d1565b965050602087013567ffffffffffffffff8111156149c4576149c3614020565b5b6149d089828a016144d1565b95505060406149e189828a016141b3565b94505060606149f289828a01614947565b9350506080614a0389828a016141b3565b92505060a0614a1489828a016141b3565b9150509295509295509295565b600080600060608486031215614a3a57614a3961401b565b5b6000614a48868287016141b3565b9350506020614a59868287016141b3565b9250506040614a6a868287016141b3565b9150509250925092565b600060c082019050614a896000830189614227565b614a96602083018861455b565b614aa3604083018761455b565b614ab0606083018661455b565b614abd608083018561455b565b81810360a0830152614acf8184614137565b9050979650505050505050565b60008060408385031215614af357614af261401b565b5b6000614b0185828601614268565b9250506020614b1285828601614268565b9150509250929050565b60008060408385031215614b3357614b3261401b565b5b6000614b41858286016141b3565b9250506020614b5285828601614268565b9150509250929050565b7f4e487b7100000000000000000000000000000000000000000000000000000000600052602260045260246000fd5b60006002820490506001821680614ba357607f821691505b602082108103614bb657614bb5614b5c565b5b50919050565b7f4552433732313a20617070726f76616c20746f2063757272656e74206f776e6560008201527f7200000000000000000000000000000000000000000000000000000000000000602082015250565b6000614c186021836140eb565b9150614c2382614bbc565b604082019050919050565b60006020820190508181036000830152614c4781614c0b565b9050919050565b7f4552433732313a20617070726f76652063616c6c6572206973206e6f7420746f60008201527f6b656e206f776e6572206f7220617070726f76656420666f7220616c6c000000602082015250565b6000614caa603d836140eb565b9150614cb582614c4e565b604082019050919050565b60006020820190508181036000830152614cd981614c9d565b9050919050565b60008190508160005260206000209050919050565b60006020601f8301049050919050565b600082821b905092915050565b600060088302614d427fffffffffffffffffffffffffffffffffffffffffffffffffffffffffffffffff82614d05565b614d4c8683614d05565b95508019841693508086168417925050509392505050565b6000819050919050565b6000614d89614d84614d7f84614192565b614d64565b614192565b9050919050565b6000819050919050565b614da383614d6e565b614db7614daf82614d90565b848454614d12565b825550505050565b600090565b614dcc614dbf565b614dd7818484614d9a565b505050565b5b81811015614dfb57614df0600082614dc4565b600181019050614ddd565b5050565b601f821115614e4057614e1181614ce0565b614e1a84614cf5565b81016020851015614e29578190505b614e3d614e3585614cf5565b830182614ddc565b50505b505050565b600082821c905092915050565b6000614e6360001984600802614e45565b1980831691505092915050565b6000614e7c8383614e52565b9150826002028217905092915050565b614e95826140e0565b67ffffffffffffffff811115614eae57614ead6143d4565b5b614eb88254614b8b565b614ec3828285614dff565b600060209050601f831160018114614ef65760008415614ee4578287015190505b614eee8582614e70565b865550614f56565b601f198416614f0486614ce0565b60005b82811015614f2c57848901518255600182019150602085019450602081019050614f07565b86831015614f495784890151614f45601f891682614e52565b8355505b6001600288020188555050505b505050505050565b7f4f6e6c79206f776e65722063616e2063616c6c20746869732066756e6374696f60008201527f6e00000000000000000000000000000000000000000000000000000000000000602082015250565b6000614fba6021836140eb565b9150614fc582614f5e565b604082019050919050565b60006020820190508181036000830152614fe981614fad565b9050919050565b7f4f6e6c7920746865206f776e6572206f66207468652070726f7065727479206360008201527f616e20707574206974206f6e2073616c65000000000000000000000000000000602082015250565b600061504c6031836140eb565b915061505782614ff0565b604082019050919050565b6000602082019050818103600083015261507b8161503f565b9050919050565b7f4552433732313a2063616c6c6572206973206e6f7420746f6b656e206f776e6560008201527f72206f7220617070726f76656400000000000000000000000000000000000000602082015250565b60006150de602d836140eb565b91506150e982615082565b604082019050919050565b6000602082019050818103600083015261510d816150d1565b9050919050565b7f50726f706572747920616c7265616479206d61726b656420617661696c61626c60008201527f6500000000000000000000000000000000000000000000000000000000000000602082015250565b60006151706021836140eb565b915061517b82615114565b604082019050919050565b6000602082019050818103600083015261519f81615163565b9050919050565b7f4e487b7100000000000000000000000000000000000000000000000000000000600052601160045260246000fd5b60006151e082614192565b91507fffffffffffffffffffffffffffffffffffffffffffffffffffffffffffffffff8203615212576152116151a6565b5b600182019050919050565b7f4552433732313a20696e76616c696420746f6b656e2049440000000000000000600082015250565b60006152536018836140eb565b915061525e8261521d565b602082019050919050565b6000602082019050818103600083015261528281615246565b9050919050565b7f4552433732313a2061646472657373207a65726f206973206e6f74206120766160008201527f6c6964206f776e65720000000000000000000000000000000000000000000000602082015250565b60006152e56029836140eb565b91506152f082615289565b604082019050919050565b60006020820190508181036000830152615314816152d8565b9050919050565b7f546869732070726f7065727479206973204e4f54206d61726b656420666f722060008201527f73616c6521000000000000000000000000000000000000000000000000000000602082015250565b60006153776025836140eb565b91506153828261531b565b604082019050919050565b600060208201905081810360008301526153a68161536a565b9050919050565b7f4f6e6c792061646d696e2063616e2075736520746869732066756e6374696f6e600082015250565b60006153e36020836140eb565b91506153ee826153ad565b602082019050919050565b60006020820190508181036000830152615412816153d6565b9050919050565b7f537572766579204e756d62657220616c7265616479207265676973746572656460008201527f2100000000000000000000000000000000000000000000000000000000000000602082015250565b60006154756021836140eb565b915061548082615419565b604082019050919050565b600060208201905081810360008301526154a481615468565b9050919050565b60006154c66154c16154bc846141f5565b614d64565b6141f5565b9050919050565b60006154d8826154ab565b9050919050565b60006154ea826154cd565b9050919050565b6154fa816154df565b82525050565b600060c082019050818103600083015261551a8189614137565b9050818103602083015261552e8188614137565b905061553d604083018761455b565b61554a60608301866154f1565b615557608083018561455b565b61556460a083018461455b565b979650505050505050565b600081905092915050565b6000615585826140e0565b61558f818561556f565b935061559f8185602086016140fc565b80840191505092915050565b60006155b7828561557a565b91506155c3828461557a565b91508190509392505050565b7f4f6e6c7920746865206f776e6572206f66207468652070726f7065727479206360008201527f616e2074616b65206974206f66662073616c6500000000000000000000000000602082015250565b600061562b6033836140eb565b9150615636826155cf565b604082019050919050565b6000602082019050818103600083015261565a8161561e565b9050919050565b7f4f6e6c7920746865206f776e6572206f66207468652070726f7065727479206360008201527f616e207472616e73666572206f776e6572736869700000000000000000000000602082015250565b60006156bd6035836140eb565b91506156c882615661565b604082019050919050565b600060208201905081810360008301526156ec816156b0565b9050919050565b7f43616e6e6f74207472616e736665722070726f706572747920647572696e672060008201527f61756374696f6e00000000000000000000000000000000000000000000000000602082015250565b600061574f6027836140eb565b915061575a826156f3565b604082019050919050565b6000602082019050818103600083015261577e81615742565b9050919050565b7f43616e6e6f74207472616e736665722070726f7065727479207768656e206e6f60008201527f7420696e2073616c650000000000000000000000000000000000000000000000602082015250565b60006157e16029836140eb565b91506157ec82615785565b604082019050919050565b60006020820190508181036000830152615810816157d4565b9050919050565b7f4552433732313a207472616e736665722066726f6d20696e636f72726563742060008201527f6f776e6572000000000000000000000000000000000000000000000000000000602082015250565b60006158736025836140eb565b915061587e82615817565b604082019050919050565b600060208201905081810360008301526158a281615866565b9050919050565b7f4552433732313a207472616e7366657220746f20746865207a65726f2061646460008201527f7265737300000000000000000000000000000000000000000000000000000000602082015250565b60006159056024836140eb565b9150615910826158a9565b604082019050919050565b60006020820190508181036000830152615934816158f8565b9050919050565b7f4552433732313a20617070726f766520746f2063616c6c657200000000000000600082015250565b60006159716019836140eb565b915061597c8261593b565b602082019050919050565b600060208201905081810360008301526159a081615964565b9050919050565b7f4552433732313a207472616e7366657220746f206e6f6e20455243373231526560008201527f63656976657220696d706c656d656e7465720000000000000000000000000000602082015250565b6000615a036032836140eb565b9150615a0e826159a7565b604082019050919050565b60006020820190508181036000830152615a32816159f6565b9050919050565b7f4e487b7100000000000000000000000000000000000000000000000000000000600052601260045260246000fd5b600081519050919050565b600082825260208201905092915050565b6000615a8f82615a68565b615a998185615a73565b9350615aa98185602086016140fc565b615ab281614126565b840191505092915050565b6000608082019050615ad26000830187614227565b615adf6020830186614227565b615aec604083018561455b565b8181036060830152615afe8184615a84565b905095945050505050565b600081519050615b1881614051565b92915050565b600060208284031215615b3457615b3361401b565b5b6000615b4284828501615b09565b91505092915050565b7f4552433732313a206d696e7420746f20746865207a65726f2061646472657373600082015250565b6000615b816020836140eb565b9150615b8c82615b4b565b602082019050919050565b60006020820190508181036000830152615bb081615b74565b9050919050565b7f4552433732313a20746f6b656e20616c7265616479206d696e74656400000000600082015250565b6000615bed601c836140eb565b9150615bf882615bb7565b602082019050919050565b60006020820190508181036000830152615c1c81615be0565b905091905056fea26469706673582212207536119772874aa0c5bceac9228ae33deb24a2626781768e997095b5b07b765964736f6c63430008130033",
  "immutableReferences": {},
  "source": "// SPDX-License-Identifier: MIT\n\n// Ramanathan Nachiappan- 50469166\n// Final - Property Registry and Transfer System Using NFT\n\n// Individual project!\n\npragma solidity ^0.8.9;\n\nimport \"@openzeppelin/contracts/token/ERC721/ERC721.sol\";\nimport \"@openzeppelin/contracts/token/ERC721/extensions/ERC721Burnable.sol\";\nimport \"@openzeppelin/contracts/access/Ownable.sol\";\n\ncontract PropertyRegistry  is ERC721 {\n    address public chairperson;\n    address payable pub;\n    uint256 public tokenCounter;\n    uint public totalAdmins;\n    enum Type{HOUSE,LAND}\n    enum PropertyStatus { UNVERIFIED, VERIFIED, AUCTION, TRANSFERRED } \n    enum reqStatus {requested,accepted,rejected,paymentdone,completed}\n    uint requestCount = 0;\n\n    struct Property {\n        address payable Powner;\n        address admin;\n        uint propId;\n        string name;\n        string location;\n        uint256 area;\n        uint256 price;\n        uint surveyNumber;\n        PropertyStatus status;\n        bool markAvailable;\n        uint index;\n        bool registered;\n        uint noOfRequests;\n        mapping(uint => RequestDetails) requests;\n\n    }\n    struct RequestDetails{\n        address whoRequested;\n        uint reqIndex;\n    }\n    struct UserProfile{\n        address userAddr;\n        string fullName;\n        uint256 contact;\n        uint totalIndices;\n        uint requestIndices;\n    }\n    struct RequestedProp{\n        uint surveyNumber;\n        address payable sellerId;\n        address payable buyerId;\n        uint id;\n        reqStatus requestStatus;\n        uint amt;\n        bool isPaymentDone;\n    }\n    struct Admin {\n        address adminAddr;\n    }\n    struct OwnerOwns{\n        uint surveyNumber;\n    }\n    mapping(address => mapping(uint => OwnerOwns)) public ownerMapsProperty;\n    mapping(uint256 => Property) private properties;\n    mapping(address => bool) private chairpersons;\n    mapping(address => UserProfile) public userProfile;\n    mapping(address => mapping(uint => RequestedProp)) public requestedProp;\n    mapping (address => Admin) public admins;\n\n    mapping(address => uint[])  MyProp;\n    mapping(address => uint[])  MyReceivedRequest;\n    mapping(address => uint[])  MySentRequest;\n    mapping(uint => uint[])  allpropList;\n\n\n    event PropertyRegistered(string name, string location, uint surveyNo, address owner, uint256 marketValue, uint256 size);\n    event PropertySold(address indexed buyer, address indexed seller, uint256 indexed tokenId, uint256 price);\n    event PropertyTransferred(address indexed from, address indexed to, uint256 indexed tokenId);\n\n    constructor() ERC721(\"Property NFT\", \"PNFT\"){\n        chairperson = msg.sender;\n        tokenCounter = 0;\n    }\n    modifier onlyAdmin(){\n        require(admins[msg.sender].adminAddr == msg.sender, \"Only admin can use this function\");\n        _;\n    }\n    modifier onlyOwner(uint256 _tokenCounter) {\n        require(ownerOf(_tokenCounter) == msg.sender, \"Only owner can call this function\");\n        _;\n    }\n    function addAdmin(address _adminAddr) external returns(bool){\n        require(chairperson==msg.sender);\n        Admin storage newAdmin = admins[_adminAddr];\n        totalAdmins++;\n        newAdmin.adminAddr = _adminAddr;\n        return true;\n    }\n    function isAdmin() external view returns(bool){\n        if(admins[msg.sender].adminAddr == msg.sender){\n            return true;\n        }\n        else return false;\n    }\n    function addUser(string memory _fullName, uint256 _contact) external  {\n        \n        UserProfile storage newUserProfile = userProfile[msg.sender];\n        newUserProfile.fullName = _fullName;\n        newUserProfile.contact = _contact;\n    }\n    function registerProperty( string memory _name,string memory _location, uint _surveyNo,  address payable _owner, uint _marketValue, uint _sqft) external onlyAdmin{\n\n        require(properties[_surveyNo].registered == false, \"Survey Number already registered!\");\n        tokenCounter++;\n        _safeMint(msg.sender, tokenCounter);\n        Property storage newLandRegistry = properties[_surveyNo];\n        OwnerOwns storage newOwnerOwns = ownerMapsProperty[_owner][userProfile[_owner].totalIndices];\n        newLandRegistry.name = _name;\n        newLandRegistry.location = _location;\n        newLandRegistry.Powner = _owner;\n        newLandRegistry.admin = msg.sender;\n        newLandRegistry.propId = tokenCounter;\n        newLandRegistry.surveyNumber = _surveyNo;\n        newLandRegistry.index = userProfile[_owner].totalIndices;\n        newLandRegistry.registered = true;\n        newLandRegistry.price = _marketValue;\n        newLandRegistry.markAvailable = false;\n        newLandRegistry.status = PropertyStatus.VERIFIED;\n        newLandRegistry.area = _sqft;\n        newOwnerOwns.surveyNumber = _surveyNo;\n        userProfile[_owner].totalIndices++;\n        emit PropertyRegistered(_name, _location, _surveyNo, _owner, _marketValue, _sqft);\n    }\n    function transferProperty(uint256 _tokenCounter, address to) public onlyOwner(_tokenCounter) {\n        require(ownerOf(_tokenCounter) == msg.sender, \"Only the owner of the property can transfer ownership\");\n        require(properties[_tokenCounter].status != PropertyStatus.AUCTION, \"Cannot transfer property during auction\");\n        require(properties[_tokenCounter].markAvailable != false, \"Cannot transfer property when not in sale\");\n        _transfer(msg.sender, to, _tokenCounter);\n        emit PropertyTransferred(msg.sender, to, _tokenCounter);\n\n    }\n    function putPropertyOnSale(uint256 _token) public  onlyOwner(_token){\n         require(ownerOf(_token) == msg.sender, \"Only the owner of the property can put it on sale\");\n         properties[_token].markAvailable = true;\n    \n    }function takePropertyOffSale(uint256 _token) public  onlyOwner(_token){\n         require(ownerOf(_token) == msg.sender, \"Only the owner of the property can take it off sale\");\n         properties[_token].markAvailable = false;\n    }\n    function myAllprop(address id) public view returns( uint[] memory){\n        return MyProp[id];\n    }\n    function requestforBuy(uint _PropId, uint _surveyno, uint _amt) public\n    {   \n       pub= payable(msg.sender);\n       requestCount++;\n       requestedProp[msg.sender][requestCount]=RequestedProp(_surveyno,properties[_PropId].Powner,pub,_PropId,reqStatus.requested,_amt,false);\n       MyReceivedRequest[properties[_PropId].Powner].push(requestCount);\n       MySentRequest[msg.sender].push(requestCount);\n    }\n    function myReceivedLandRequests() public view returns(uint[] memory)\n    {\n        return MyReceivedRequest[msg.sender];\n    }\n    function mySentLandRequests() public view returns(uint[] memory)\n    {\n        return MySentRequest[msg.sender];\n    }\n    function acceptRequest(uint _requestId) public\n    {\n        require(requestedProp[msg.sender][_requestId].sellerId==msg.sender);\n        requestedProp[msg.sender][_requestId].requestStatus=reqStatus.accepted;\n    }\n    function rejectRequest(uint _requestId) public\n    {\n       require(requestedProp[msg.sender][_requestId].sellerId==msg.sender);\n        requestedProp[msg.sender][_requestId].requestStatus=reqStatus.rejected;\n    }\n    function requesteStatus(uint _requestId) public view returns(bool)\n    {\n        return requestedProp[msg.sender][_requestId].isPaymentDone;\n    }\n    function propPrice(uint _surveyNo) public view returns(uint)\n    {\n        return properties[_surveyNo].price;\n    }\n    function makePayment(uint _requestId) public payable\n    {\n        require(requestedProp[msg.sender][_requestId].buyerId==msg.sender && requestedProp[msg.sender][_requestId].requestStatus==reqStatus.accepted);\n\n        requestedProp[msg.sender][_requestId].requestStatus=reqStatus.paymentdone;\n        properties[requestedProp[msg.sender][_requestId].id].Powner.transfer(msg.value);\n        requestedProp[msg.sender][_requestId].isPaymentDone=true;\n        emit PropertySold(msg.sender, properties[requestedProp[msg.sender][_requestId].id].Powner, _requestId, msg.value);\n    }\n    function getPropDetails(uint _surveyNo) external view returns(address, uint256, uint, uint, uint,string memory){\n        \n        address owner = properties[_surveyNo].Powner;\n        uint256 propertyid = properties[_surveyNo].propId;\n        uint indx = properties[_surveyNo].index;\n        uint sqft = properties[_surveyNo].area;\n        uint mv = properties[_surveyNo].price;\n        string memory location = properties[_surveyNo].location;\n        return(owner, propertyid, indx, mv, sqft,location);     \n    }\n    function getUserProfile() external view returns(address,string memory, uint256){\n        string memory fullName = userProfile[msg.sender].fullName;\n        uint256 contact = userProfile[msg.sender].contact;\n        return(msg.sender,fullName, contact);\n    }\n    function isAvailable( uint _surveyNo) external view returns(bool){\n        bool available = properties[_surveyNo].markAvailable;\n        return(available);\n    }\n\n    function getIndices() external view returns(uint, uint){\n        uint _totalIndices = userProfile[msg.sender].totalIndices;\n        uint _reqIndices = userProfile[msg.sender].requestIndices;\n        return(_totalIndices, _reqIndices);\n    }\n    function getOwnerOwns() external view returns( uint){\n        uint surveyNo = ownerMapsProperty[msg.sender][0].surveyNumber;\n        return(surveyNo);\n    }\n    function markMyPropertyAvailable() external {\n        uint surveyNumber = ownerMapsProperty[msg.sender][0].surveyNumber;\n        require(properties[surveyNumber].markAvailable == false, \"Property already marked available\");\n        properties[surveyNumber].markAvailable = true;\n    \n    }\n    function didIRequested(uint _surveyNo) external view returns(bool){\n        \n        Property storage thisLandDetail = properties[_surveyNo];\n        uint _noOfRequests = thisLandDetail.noOfRequests;\n\n        if(_noOfRequests == 0) \n            return (false);\n\n        for(uint i=0; i<_noOfRequests; i++){\n            if(thisLandDetail.requests[i].whoRequested == msg.sender){\n                return (true);\n            }\n        } \n\n        return(false);\n    }\n    function RequestForBuy(uint _surveyNo) external{\n\n        Property storage thisLandDetail = properties[_surveyNo];\n        require(thisLandDetail.markAvailable == true, \"This property is NOT marked for sale!\");\n\n        uint req_serialNum = thisLandDetail.noOfRequests; \n        thisLandDetail.requests[req_serialNum].whoRequested = msg.sender;\n        thisLandDetail.requests[req_serialNum].reqIndex = userProfile[msg.sender].requestIndices;\n        thisLandDetail.noOfRequests++;\n\n        RequestedProp storage newReqestedLands = requestedProp[msg.sender][userProfile[msg.sender].requestIndices];\n        newReqestedLands.surveyNumber = _surveyNo;\n        userProfile[msg.sender].requestIndices++;\n\n    }\n}\n//V5-Final - 265Line\n",
  "sourcePath": "C:\\Users\\Ram N\\Desktop\\Blockchain_50469166\\BlockChainPnft\\Pnft-contract\\contracts\\PropertyRegistry.sol",
  "compiler": {
    "name": "solc",
    "version": "0.8.19+commit.7dd6d404.Emscripten.clang"
  },
  "schemaVersion": "3.4.13",
  "updatedAt": "2023-05-07T19:31:49.731Z",
  "networkType": "ethereum",
  "devdoc": {
    "events": {
      "Approval(address,address,uint256)": {
        "details": "Emitted when `owner` enables `approved` to manage the `tokenId` token."
      },
      "ApprovalForAll(address,address,bool)": {
        "details": "Emitted when `owner` enables or disables (`approved`) `operator` to manage all of its assets."
      },
      "Transfer(address,address,uint256)": {
        "details": "Emitted when `tokenId` token is transferred from `from` to `to`."
      }
    },
    "kind": "dev",
    "methods": {
      "approve(address,uint256)": {
        "details": "See {IERC721-approve}."
      },
      "balanceOf(address)": {
        "details": "See {IERC721-balanceOf}."
      },
      "getApproved(uint256)": {
        "details": "See {IERC721-getApproved}."
      },
      "isApprovedForAll(address,address)": {
        "details": "See {IERC721-isApprovedForAll}."
      },
      "name()": {
        "details": "See {IERC721Metadata-name}."
      },
      "ownerOf(uint256)": {
        "details": "See {IERC721-ownerOf}."
      },
      "safeTransferFrom(address,address,uint256)": {
        "details": "See {IERC721-safeTransferFrom}."
      },
      "safeTransferFrom(address,address,uint256,bytes)": {
        "details": "See {IERC721-safeTransferFrom}."
      },
      "setApprovalForAll(address,bool)": {
        "details": "See {IERC721-setApprovalForAll}."
      },
      "supportsInterface(bytes4)": {
        "details": "See {IERC165-supportsInterface}."
      },
      "symbol()": {
        "details": "See {IERC721Metadata-symbol}."
      },
      "tokenURI(uint256)": {
        "details": "See {IERC721Metadata-tokenURI}."
      },
      "transferFrom(address,address,uint256)": {
        "details": "See {IERC721-transferFrom}."
      }
    },
    "version": 1
  },
  "userdoc": {
    "kind": "user",
    "methods": {},
    "version": 1
  }
}